:1000000020C02FC02EC02DC02CC006C12AC029C0C0
:1000100028C027C026C025C049C123C022C0000077
:100020000000370000000000380001030000040059
:10003000000000003600020202020202010204086F
:10004000102011241FBECFE5D2E0DEBFCDBF20E0DF
:10005000A0E6B0E001C01D92AC37B207E1F73AD19B
:10006000F0C2CECF3FB7F89480917800909179009C
:10007000A0917A00B0917B0022B708B601FE05C0BE
:100080002F3F19F00196A11DB11D3FBFBA2FA92F17
:10009000982F8827BC01CD01620F711D811D911D14
:1000A00043E0660F771F881F991F4A95D1F708957F
:1000B000CF92DF92EF92FF92CF93DF936B017C019F
:1000C000D1DFEB01CFDF6C1B7D0B683E7340A0F0EE
:1000D000C114D104E104F10439F4DF91CF91FF9010
:1000E000EF90DF90CF90089581E0C81AD108E10821
:1000F000F108C851DC4FE6CFC114D104E104F1048A
:1001000009F7EBCF90E0FC01E45CFF4F2491FC0188
:10011000EA5CFF4FE491EE2371F0F0E0EE0FFF1F79
:10012000E05DFF4FA591B491EC91E22381E090E076
:1001300021F480E0089580E090E0089590E0FC01D3
:10014000E65DFF4F3491FC01E45CFF4F2491FC011C
:10015000EA5CFF4FE491EE23B9F0332329F031300C
:10016000A1F48AB58F778ABDF0E0EE0FFF1FEC5D3A
:10017000FF4FA591B4918FB7611118C0F894EC911D
:1001800020952E232C938FBF0895323019F48AB511
:100190008F7DE9CF333021F480B78F7D80BFE4CFEE
:1001A000343011F78CB58F7D8CBDDECFF894EC9197
:1001B0002E2BE8CFCF93DF9390E0FC01E45CFF4F60
:1001C00024918A5C9F4FFC0184918823D1F090E0B8
:1001D000880F991FFC01E25EFF4FA591B491FC01CD
:1001E000EC5DFF4FC591D49161110EC09FB7F8949B
:1001F0008C91E22FE0958E238C932881E223E88373
:100200009FBFDF91CF9108958FB7F894EC91E22BC7
:10021000EC938FBFF6CFD2C11F920F920FB60F9201
:1002200011242F933F938F939F93AF93BF9380910C
:10023000740090917500A0917600B0917700309194
:10024000730026E0230F2D3768F129E8230F03966A
:10025000A11DB11D209373008093740090937500CD
:10026000A0937600B0937700809178009091790008
:10027000A0917A00B0917B000196A11DB11D8093E1
:10028000780090937900A0937A00B0937B00BF919F
:10029000AF919F918F913F912F910F900FBE0F9033
:1002A0001F9018950296A11DB11DD4CF1F920F92D9
:1002B0000FB60F9211248F930FB6F894A89581B5BD
:1002C000886181BD11BC0FBE8F910F900FBE0F9042
:1002D0001F90189583E08ABD82E083BF789489B728
:1002E000826089BF80E48CBD8FEF8DBD84EC80BFC0
:1002F00083E886B961E081E05DDF61E081E01EDFD7
:1003000061E080E057DF60E080E018DF60E083E0DC
:1003100051DF60E084E04EDF379890E080E07BDFE3
:10032000C82F81E090E077DF90E0B0E0A0E07C01B2
:10033000DD24CC24FC2A82E090E06DDFC82F83E02E
:1003400090E069DFC82ADC2A2FEFC216D206E20647
:10035000F20619F4C12CD12C7601C0926000D09223
:100360006100E0926200F092630084E0CBDE21E065
:10037000892B09F020E020936B0083E0C3DE05E5C4
:1003800012E28130910511F407E71BE11093680038
:1003900000936700CEEDD6E08130910511F4CCEBEF
:1003A000DDE0D0936600C0936500019709F4D7C0E3
:1003B00086ED92E090936E0080936D0084E090E073
:1003C0002ADF8D3CB9F5B80190E080E04601570185
:1003D00020ED821A2EE7920A21E0A20AB10821E656
:1003E00082162AEE9206A104B10448F4A7019601F0
:1003F000EDD020E034EF41E050E001D1B90170933D
:10040000680060936700BE0190E080E021E68216FC
:100410002AEE9206A104B10448F4A7019601D6D0B1
:1004200020E034EF41E050E0EAD0B901709366007B
:100430006093650061E080E081DE98E9F92E21E6B5
:10044000E22E36E0D32E01E010E085B7877E806192
:1004500085BFF89414BEF1BCE1BCA89585B7806255
:1004600085BF7894889585B78F7D85BF8091710011
:100470009091720001969093720080937100C091E8
:100480006F00D09170002196D0937000C0936F00E0
:1004900080E038DE019709F04CC0CE36D10508F473
:1004A00048C01092700010926F00379AD09264008A
:1004B00060E081E043DE62E170E080E090E0F8DD42
:1004C00090E2D0E0C0E0809164008295880F880FB0
:1004D000807C816087B927B180916400880F880F84
:1004E0008071822B87B9369A3699FECF84B125B1B7
:1004F000322F282FC20FD31F915029F762E070E0EE
:1005000080E090E0D5DD61E081E018DE379885E09D
:10051000D695C7958A95E1F780916D0090916E0010
:10052000C817D90730F460E080E008DE81E08093EE
:100530006C0080916B00882309F487CF80916C0058
:10054000811183CF8091690090916A00009751F0EA
:100550000197E1F010936A000093690076CF81ED76
:1005600092E028CF20917100309172008091670055
:10057000909168002817390708F467CF109272002D
:100580001092710060E080E0D9DDE4CF209171002D
:1005900030917200809165009091660028173907AC
:1005A00008F453CF109272001092710061E080E065
:1005B000C5DD10926A001092690047CFE199FECF25
:1005C0009FBB8EBBE09A99278DB30895EE27FF2736
:1005D000AA27BB2708C0A20FB31FE41FF51F220FD5
:1005E000331F441F551F969587957795679598F308
:1005F0007040A9F7009799F7BD01CF010895A1E2D6
:100600001A2EAA1BBB1BFD010DC0AA1FBB1FEE1F8C
:10061000FF1FA217B307E407F50720F0A21BB30BD7
:10062000E40BF50B661F771F881F991F1A9469F753
:1006300060957095809590959B01AC01BD01CF01AF
:060640000895F894FFCFBD
:00000001FF
